:03000000020030CB
:10003000758920758DFD759850D28E12008F75A030
:10004000FF3098FDC298E599F9C39430403FE9C369
:10005000943A401AE9C394414033E9C394474014A9
:10006000E9C394614027E9C394674010801FE9C346
:100070009430800EE9C39441240A8006E9C3946158
:10008000240AF89000EA93F5A0E81200C580B27A3D
:100090000B7B071200AC7A097B001200AC7A0A7B5A
:1000A000071200AC7A0C7B011200AC22C291EA125A
:1000B00000B9EB1200B9D291227C08339290D2920F
:1000C000C292DCF72275F008A49000FAFCADF0E5CE
:1000D000822CF582E5833DF5837E01EEFAE493FB05
:1000E0001200ACA30EEEB409F222C0F9A4B09992AA
:1000F00082F880908883C6A1868E3C42424242426A
:10010000423C081828080808083E3C42020C10200F
:10011000407E3C42021C0202423C0C1424447E04F9
:1001200004047E40407C0202423C3C40407C42420F
:10013000423C7E020408102020203C42423C4242C5
:10014000423C3C4242423E02023C182442427E4231
:1001500042427C42427C4242427C3C4240404040DF
:10016000423C78444242424244787E40407C404097
:0A017000407E7E40407C404040404D
:00000001FF
