:020000002100DD
:1001000075813FC2AF12016212018F1201E6D2B4B3
:10011000D2B5758955D28CD28E9002AD1201EBAD5D
:100120008AAC8CAF8BAE8DEC1201A7ED1201A774D7
:100130002C1201BDEE1201A7EF1201A71201DDB2D0
:10014000B712015B80D3C0077F50020177C0077FE1
:1001500028020177C0077F14020177C0077F0A02D7
:100160000177C0077F05020177C0077F0202017790
:10017000C0077F01020177C0E0C0F075F0C874BF0E
:10018000D5E0FDD5F0F8DFF3D0F0D0E0D007227550
:10019000C83075CBFF75CADC75CDFF75CCDC7598A2
:1001A0005075C834C2AF22C0E0C41201AFD0E0C065
:1001B00083C0829001CD540F93D082D083C0A8C257
:1001C000ACC299F5993099FDC299D0A8223031324C
:1001D00033343536373839414243444546740D315E
:1001E000BD740A31BD22740C31BD22E49360053127
:1001F000BDA380F722C0A8C2ACC299F5993099FD81
:10020000C299D0A822C0A8C2AC3098FDC298E59986
:10021000D0A8227F007E00AD83AC82783012025BD2
:100220007831E6F5F008E6F58308E6F5822200E885
:100230008BF0A4FBA9F0E88CF0A4C329FC74003572
:10024000F0F9E88DF0A4C329FD740035F0F9E88ECB
:10025000F0A4C329FE740035F0FF22E4F608F60886
:10026000F608F67900758320EC33FCED33FDEE33B0
:10027000FEEF33FF7582047801E635E0D4F618D539
:1002800082F7D583E322AC83AB827E007F00758347
:1002900010EB33FBEC33FC7582027807E635E0D4D3
:1002A000F618D582F7D583E98E838F822244617454
:0D02B0006120436F756E746572203D200063
:00000001FF
