:0600000002001B0200BC1F
:01000B0032C2
:030013000200D414
:0700740075083F75090675D0
:06007B000A5B750B4F75D6
:060081000C66750D6D75A3
:060087000E7D750F0775E8
:06008D00107F75116F7574
:02009300121B3E
:0300950002001650
:050016001200E480FE71
:040098007A007B006F
:0E009C00C3EA9405EB6480948050147CC87D08
:0100AA000055
:0500AB001CBCFF011D5B
:0B00B000EC4D70F70ABA00E40B80E191
:0100BB002222
:0C00BC00C0E0C0D075D00005127463B520
:0200C800120024
:0500CA00500375120057
:0500CF00D0D0D0E032AA
:0A00D400C0E0E512700575126380AC
:0100DE00021F
:0200DF001512F8
:0300E100D0E0323A
:0A00E400D288D28AD2A8D2AAD2AFE5
:0B00EE0075F00AE51284FA75F00AE5CF
:0A00F9001284ABF075A0FDEA2408A4
:0E010300F88690C003120098D00375A0FEEBA2
:0A0111002408F8869012009880D3AD
:06004A00E478FFF6D8FD8A
:080028007900E94400601B7A35
:050030000090011F78A3
:030035000075A0B3
:0A00380000E493F2A308B8000205EB
:08004200A0D9F4DAF275A0FF69
:080050007800E84400600A7921
:030058000075A090
:06005B0000E4F309D8FCEB
:080061007800E84400600C790E
:0B00690000900000E4F0A3D8FCD9FADE
:03001B00758112DA
:0A001E0012011BE5826003020016C8
:04011B0075820022C7
:00000001FF
