:03000000020030CB
:100030001200A37F0012007C20B00DEFB4000280FC
:10004000077F0012007C800020B10DEFB401028018
:10005000077F0112007C800020B20DEFB402028005
:10006000077F0212007C800020B30BEFB4030280F4
:10007000057F0312007C1200D902003875F008EFEA
:10008000A49000E2FCE5F0FDE5822CF582E5833DDD
:10009000F5837E01EEFAE493FB1200C0A30EEEB4EA
:1000A00009F2227A0B7B071200C07A097B0012004A
:1000B000C07A0A7B071200C07A0C7B011200C022B2
:1000C000C291EA1200CDEB1200CDD291227C08330E
:1000D0009290D292C292DCF7227CC87D64DDFEDC75
:1000E000FA22003C425A665A423C3C427E5A424204
:1000F0007E0006057FFE7E24240000187E991818D5
:020100001818CD
:00000001FF
